:03000000020003F8
:0C000300787FE4F6D8FD75811C02004AED
:1000D00011082050656368696E20536369656E631B
:0300E00065200098
:10011C001200E47B007A007908E4FDFF12008F8066
:01012C00FED4
:1000F8007580FFC2A6D2A5D2A7AF80C2A7EF20E71E
:01010800F600
:0101090022D3
:10012D00AE071200F8C2A6C2A58E80D2A7C2A72222
:10013D00AE071200F8D2A6C2A58E80D2A7C2A72202
:10010A00ED7004AC078004EF2440FCEC4480FF024D
:02011A00012DB5
:10008F008B1A8A1B891C12010AAB1AAA1BA91C12F4
:10009F0000B76013051CE51C7002051B14F9120054
:0800AF00B7FF12013D80E222BF
:1000E4007F3812012D7F0C12012D7F0612012D7F06
:0400F4000102012DD7
:10000F0002011CE493A3F8E493A34003F68001F2EA
:10001F0008DFF48029E493A3F85407240CC8C333F2
:10002F00C4540F4420C8834004F456800146F6DFC1
:10003F00E4800B01020408102040809000D0E47E81
:10004F00019360BCA3FF543F30E509541FFEE493B6
:10005F00A360010ECF54C025E060A840B8E493A37D
:10006F00FAE493A3F8E493A3C8C582C8CAC583CAA8
:10007F00F0A3C8C582C8CAC583CADFE9DEE780BE60
:0100E300001C
:1000B700BB010689828A83E0225002E722BBFE0247
:0900C700E32289828A83E493227A
:00000001FF
