:03000000020003F8
:0C000300787FE4F6D8FD75812602004AE3
:0F01BA006B31006B32006B33006B34006B350020
:1001280011082050656368696E20536369656E63C2
:100138006520000B194B65795F56616C75653A004F
:10008F005390F01201627B007A007908E4FDFF12B1
:10009F0001007B007A0079197D01E4FF1201002035
:1000AF00940D7BFF7A0179BA7D017F0A120100203E
:1000BF00950D7BFF7A0179BD7D017F0A120100202A
:1000CF00960D7BFF7A0179C07D017F0A1201002016
:1000DF00970D7BFF7A0179C37D017F0A1201002002
:1000EF00B5BD7BFF7A0179C67D017F0A12010080C1
:0100FF00AE52
:100176007580FFC2A6D2A5D2A7AF80C2A7EF20E79F
:01018600F682
:010187002255
:10019A00AE07120176C2A6C2A58E80D2A7C2A72236
:1001AA00AE07120176D2A6C2A58E80D2A7C2A72216
:10018800ED7004AC078004EF2440FCEC4480FF02CF
:02019800019ACA
:100100008B248A258926120188AB24AA25A92612C8
:10011000014960130526E5267002052514F9120130
:0801200049FF1201AA80E2224E
:100162007F3812019A7F0C12019A7F0612019A7F40
:040172000102019AEB
:10000F0002008FE493A3F8E493A34003F68001F278
:10001F0008DFF48029E493A3F85407240CC8C333F2
:10002F00C4540F4420C8834004F456800146F6DFC1
:10003F00E4800B0102040810204080900128E47E28
:10004F00019360BCA3FF543F30E509541FFEE493B6
:10005F00A360010ECF54C025E060A840B8E493A37D
:10006F00FAE493A3F8E493A3C8C582C8CAC583CAA8
:10007F00F0A3C8C582C8CAC583CADFE9DEE780BE60
:0101480000B6
:10014900BB010689828A83E0225002E722BBFE02B4
:09015900E32289828A83E49322E7
:00000001FF
