:03000000020238C1
:0C023800787FE4F6D8FD7581100200FD0F
:1001F1002052656420436F6E74726F6C20204952E7
:0A0201002D434F44453A2D2D4820AF
:1000FD001202441201B97F8012020BE4F50FE50FD5
:10010D009001F193FF120223050FE50FC3940D40EB
:10011D00ED7FC012020BE4F50FE50F9001FE93FF8A
:10012D00120223050FE50FC3940D40EDE50BC454EA
:10013D000FF50DE50B540FF50EE50DD394097FC9A1
:10014D00400912020BE50D2437800712020BE50D55
:10015D002430FF120223E50ED39409400F7FCA12FB
:10016D00020BE50E2437FF12022380C07FCA120254
:0B017D000BE50E2430FF12022380B1BE
:0401D7007F017E0026
:1001DB00EF1FAA0670011E4A600BE4FDEDC3940DE0
:0501EB0050EE0D80F74D
:0101F00022EC
:09024400D288D2A8D2AFD2B222B6
:03000300020006F2
:10000600C0E0C083C082C0D075D000C000C002C0AE
:0700160004C005C006C0078D
:10001D007508007F467E001201DB30B2030200E856
:10002D009003E820B218D3E5829400E58394004054
:10003D000D1201D7E582158270E9158380E520B296
:10004D00030200E89001F430B218D3E5829400E584
:10005D00839400400D1201D7E582158270E9158356
:10006D0080E5E4FC75100090003C20B218D3E582C9
:10007D009400E5839400400D1201D7E5821582703E
:10008D00E9158380E59001F430B223D3E582940025
:10009D00E583940040181201D70508E5821582709A
:1000AD00021583E508D3941E40DED2A8802D740975
:1000BD002CF8C000E6C313D000F6E508C394084041
:1000CD000874092CF8E64480F67508000510E51053
:0B00DD00C3940840920CEC640470898E
:1000E800D007D006D005D004D002D000D0D0D0821E
:0500F800D083D0E032CE
:10018800EBC454F0F5807F0A7E0012019BD2A77F52
:030198000A7E00DC
:10019B00D3EF9400EE940040147D6E7C00ED1D7047
:0D01AB00011CED4C70F7EF1F70E61E80E3A5
:0101B8002224
:10020B00AB07C2A7C2A6C2A58B8012018EC2A712D2
:08021B000197120188C2A7221D
:10022300AB07C2A7D2A6C2A58B8012018EC2A712AA
:050233000188C2A722B2
:1001B9007F3212020B7F2812020B7F0C12020B7F77
:0E01C9000612020B7F0112020B7F8002020B56
:00000001FF
