:03000000020E3AB3
:0C0E3A00787FE4F6D8FD75815F020E8120
:1013480012121E7F207E03120003C2B61210DC8028
:01135800FB99
:10000300E4FDFCC3ED9FEC9E5015E4FBFA0BBB0033
:0F001300010AEB647D4A70F50DBD00010C80E41D
:0100220022BB
:10126500E4FDFCC3ED9FEC9E5015E4FBFA0BBB00BF
:0F127500010AEB64024A70F50DBD00010C80E424
:011284002247
:0312D7001212A34D
:1012DA00D2857F037E00121265C2857F057E0002D9
:0212EA0012658B
:1012A300EF1392A4EFC3131392A5EF1313543F1339
:0C12B30092A6EF131313541F1392A722EE
:1012EC008F47E547C4540FFF1212D7AF471212A312
:0312FC000212DA01
:10106000E4FF1212A37FC87E00120003C287C2866B
:10107000C2857F031212D71212DA1212DA7F02121D
:1010800012A31212DA7F2C1212EC7F801212EC7F64
:0E1090000C1212EC7F061212EC7F010212EC21
:10124300ED7007EF2480F5448005EF24C0F5447F5B
:10125300037E00120003AF441212EC7F017E0002F2
:02126300000386
:05138B007F010212ECDD
:08138300D2871212ECC287228E
:1011D0008B448A458946AB44AA45A9461204EEFFD2
:1011E00060143395E0FE12138374012546F546E43E
:0711F0003545F54580E022C2
:1012BF00D2CDD2CC75CADC75CBFFD2CAD2AC75B841
:0812CF001075985053877F222F
:0A1366007512018F99E51270FC2248
:09137000E4FF309804C298AF9923
:011379002251
:0300230002137A4B
:09137A00309905C2997512003288
:1012FF001204EEFF600C121366740129F9E43AFA36
:03130F0080EE224B
:10115200D2B77F087E00121265C2B77F5A7E001294
:101162001265D2B77F087E00121265A2B792097F7C
:0B117200647E00121265D2B7A20922B1
:10117D00E4F549F54A754908C2B7E54AC313F54A7E
:10118D00D2B730B703434A807F047E001212651533
:0A119D0049E549D3940050E0AF4A41
:0111A7002225
:0211A8008F496D
:1011AA00E4F54A754A08C2B7E5491392B77F057E46
:1011BA0000121265D2B7E549C313F549154AE54A43
:0511CA00D3940050E188
:0111CF0022FD
:100F47001211527FCC1211A87F441211A81211520C
:100F57007FCC1211A87FBE1211A812117D8F48E510
:100F670048540FFCE41201C8E4FBFA798078411277
:100F770001218F478E468D458C4412117DEF540F0A
:100F8700C454F0FFE54854F0FEC4540F4FF548AB86
:100F970047AA46A945A844C000C001C002C003FC37
:100FA700E41201C8D003D002D001D00012002D8F67
:070FB700478E468D458C4476
:010FBE002210
:10131200758A33758CFEC28DD28C308DFDC28CC223
:021322008D221A
:10132400758A48758CFFC28DD28C308DFDC28CC2FB
:021334008D2208
:10133600758A4D758CFDC28DD28C308DFDC28CC2E6
:021346008D22F6
:1012850020B21812131220B212E4FF12132430B246
:0D129500037F00220FBF28F320B2FD7F0170
:0112A2002229
:10111800E4F526F527121285EF602A30B2FDE4FDCA
:10112800121336E52725E0F527E52633F52620B204
:101138000343270120B2FD30B2FD0DBD18E27F58F0
:091148007E02120003AE26AF275F
:01115100227B
:100CEF0054657374204C656420446F6E004B4559F6
:100CFF0020484E3A20310054657374204C656420AF
:100D0F0037205468616E68004D494E48484147523C
:100D1F004F5550002054455354204B4954203839D7
:100D2F0053353200546573742052656C61792D63AD
:100D3F006F69004B455920484E3A2032004D696E7D
:100D4F0068486147726F7570005465737420554120
:100D5F00525400546573742044533138423230007A
:100D6F002054454D503A2025322E32665E430054B2
:100D7F0065737420686F6E67206E676F6169004BD3
:060D8F0045593A20330033
:0C1359000A08C0F9A4B0999282F88090B4
:100AD800752800752902E4F5907F0AFE1212651246
:100AE800106012138BE4FDFF1212437BFF7A0C791E
:100AF800EF1211D07D01E4FF1212437BFF7A0C79CB
:100B0800FC1211D07F0A7E00121265E4F580F59080
:100B1800F5A0F5B0E5291529AE28700215284E7004
:100B280003020BEFE4F526F527AF277401A80708A1
:100B38008002C333D8FCF4F5907F2C7E01120003A9
:100B48000527E52770020526C39408E526648094E6
:100B58008040D6E4F526F527AF277480A8070880DB
:100B680002C313D8FCF4F5907FC87E001200030579
:100B780027E52770020526C39408E526648094803B
:100B880040D6E4F526F527AF277408A807088002A1
:100B9800C333D8FCF4F5907FC87E00120003052704
:100BA800E52770020526C39404E5266480948040F6
:100BB800D6E4F526F527C3E5279404E52664809452
:100BC800804003020B1CAF277408A807088002C3E3
:100BD80013D8FCF4F5907FC87E001200030527E5C2
:070BE800277002052680CFF3
:010BEF0022E3
:1010DC007FF47E0112126520B50A7F0A7E00120091
:1010EC000312101620B20A7F0A7E00120003120DA2
:1010FC009520B40A7F0A7E00120003120FBF20B3A2
:0C110C000A7F0A7E00120003120EC622A9
:100D9500E4F522F52312106012138BE4FDFF121205
:100DA500437BFF7A0D79061211D0E4F5A0F5907F0B
:100DB5002C7E01120003E4F522F523AF237401A86C
:100DC50007088002C333D8FCF4F5907F2C7E01120E
:100DD50000030523E52370020522C39408E5229448
:100DE5000040D8E4F524E4F590AF2404A807088072
:100DF50002C333D8FCF4F5A07F2C7E011200030555
:100E050024E524C3940440DEE4F522F523E4F52427
:100E1500AE22AF23E4FCFD120BF00524E524C394B8
:100E25001440ED0523E52370020522C394F4E52261
:040E3500940140D90B
:010E39002296
:080BF0008F288E278D268C252D
:100BF800E47BE87A03F9F8120582AC00AD01AE0295
:100C0800AF03E47B64FAF9F8120582AC00AD01AEDB
:100C180002AF03E47B0AFAF9F8120582AF038F2CBE
:100C2800E47BE87A03F9F8AF28AE27AD26AC2512A5
:100C38000582AC00AD01AE02AF03E47B64FAF9F8BB
:100C4800120582AC00AD01AE02AF03E47B0AFAF9EB
:100C5800F81205828F2BE47BE87A03F9F8AF28AE07
:100C680027AD26AC25120582AC00AD01AE02AF035C
:100C7800E47B64FAF9F81205828F2AE47BE87A03A8
:100C8800F9F8AF28AE27AD26AC251205828F297555
:100C9800A0FF7408252CF8E6F59075A0F77F017E73
:100CA8000012000375A0FF7408252BF8E6F590756F
:100CB800A0FB7F017E0012000375A0FF7408252A9F
:100CC800F8E6F59075A0FD7F017E0012000375A07F
:100CD800FF74082529F8E6F59075A0FE7F017E00CF
:060CE80012000375A0FFDD
:010CEE0022E3
:10121E0012106012138BE4FDFF1212437BFF7A0D46
:10122E0079171211D07D01E4FF1212437BFF7A0D64
:05123E0079230211D02C
:10109E00C2B6C2B512106012138BE4FDFF121243DA
:1010AE007BFF7A0D79331211D07D01E4FF121243CA
:1010BE007BFF7A0D79421211D07FE87E0312000376
:0E10CE00B2B5B2B67F207E03120003C2B62276
:101016001212BFD2AF7BFF7A0D794C1212FF12105B
:101026006012138BE4FDFF1212437BFF7A0D795891
:101036001211D07FE87E031200031213708F221262
:1010460013708F22E52260F712138BE4FDFF121254
:0A10560043AF227E0012138380E5F1
:100FBF0012106012138B120F478F258E248D238CE6
:100FCF0022E4FDFF1212437BFF7A0D79621211D0DA
:100FDF007547FF75480D75496F85254D85244C85DF
:100FEF00234B85224A7B007A0079261206C57D01A4
:100FFF00E4FF1212437B007A0079261211D07F2C66
:07100F007E0112000380AF17
:100EC600758901121118E48F258E24F523F5227FEA
:100ED6009D7EC0FDFCAB25AA24A923A822C3120629
:100EE60022700A120AD87F647E00120003E47F9300
:100EF6007EC0FDFCAB25AA24A923A822C312062284
:100F0600700312109EE47F977EC0FDFCAB25AA24D9
:100F1600A923A822C312062270A912106012138BED
:100F2600E4FDFF1212437BFF7A0D797E1211D07D0C
:100F360001E4FF1212437BFF7A0D798E1211D080E5
:010F46008228
:10002600020231E86480F8E933E83360110460F0D5
:10003600ED33EC337009E8FCE9FDEAFEEBFF220440
:1000460060DED3EB9FEA9EE99DE8C2E78CF0C2F73B
:1000560095F0400CE8CCF8E9CDF9EACEFAEBCFFB07
:100066001201FC85D0F05804700320D5B3E8047063
:10007600075002B2D502023B92D5EC0460F7E4CCFD
:10008600C0E0C398F8603B94186008400DD0E0FBD0
:10009600020213E4FBFAC9FC8028E830E406E4C94E
:1000A600FBE4CAFCE830E305E4C9CACBFCE8540724
:1000B6006010F8C3E913F9EA13FAEB13FBEC13FC2F
:1000C600D8F130F52FC3E49CFCEF9BFFEE9AFEEDD2
:1000D60099FDD0E0FBEF4E4D4C701222DB0302027D
:1000E60038EC2CFCEF33FFEE33FEED33FDED30E75D
:1000F600EB020213EF2BFFEE3AFEED39FDD0E0FBEB
:1001060050130BBB000302023BED13FDEE13FEEF93
:0801160013FFEC13FC020213BD
:10011E0002023BEC5D046005E859047003020231F3
:10012E001201FC580460F6EC4860F2EC7004FDFE1F
:10013E00FF22C860DB2481C85009C39860025006B4
:10014E000202389850CAF582E9294B4A7005AB82F3
:10015E0002022775F0007C1A7880C3EF9BEE9AEDB1
:10016E0099400DC3EF9BFFEE9AFEED99FDE842F02C
:10017E00DC23ACF0D0E0FFD0E0FED0E0FDAB82207F
:10018E00E7101BEB60BAEC2CFCEF33FFEE33FEED09
:10019E0033FD020213E803F830E705C0F075F000F6
:1001AE00EF2FFFEE33FEED33FD40B830E7C280AAED
:1001BE0075F020800E75F010800575F0087D007EBC
:1001CE00007F003392D530D503120614EC33401065
:1001DE00EF33FFEE33FEED33FDEC33FCD5F0ED22C5
:0E01EE00E5F0247EA2D513CC92E7CDCEFF2201
:10066900E55B2447F8E6055B2278443007027847C2
:10067900E475F0011206330204EE2000EB7F2ED25E
:10068900008018EF540F2490D43440D4FF30040B69
:10069900EF24BFB41A0050032461FFE55C60021522
:1006A9005C055FE55F7002055E30070D7844E4750F
:1006B900F001120633EF0205340211F77403D20771
:1006C9008003E4C207F55B8B448A458946E4F55CFF
:1006D900F55EF55FE55C60077F201206A480F5757D
:1006E9005DFFC201C200C202C203C205C206C2083E
:1006F900120672FF700D3007057F001206B5AF5F55
:10070900AE5E22B4255FC2D5C204120672FF24D0A0
:10071900B40A00501A75F00A785C30D50508B6FF9E
:100729000106C6A426F620D5047002D20380D92476
:10073900CFB41A00EF5004C2E5D2040209A2D201D3
:1007490080C6D20080C0D20280BCD2D580BAD20580
:1007590080B47F201206A42002077401B55C004012
:10076900F1120669FF1206A40206DDD208D206803C
:1007790095120669FB120669FA120669F94A4B7065
:100789000679997A0A7BFF20022EE55C602A7E00B1
:100799008E8275830012050760060EEE655D70F0A6
:1007A900C2D5EBC0E0EAC0E0E9C0E0EE120A02D02F
:1007B900E0F9D0E0FAD0E0FB1204EEFF60AAEBC04A
:1007C900E0EAC0E0E9C0E01206A4D0E02401F9D0D3
:1007D900E03400FAD0E0FBE55D0460DCD55DD9804A
:1007E90087D20280A21209E560F7E55D7001041263
:1007F9000246A95D600DE55D600914F55D120A8C7C
:10080900EF60F3EA30E702F404C3995077EAF4257C
:100819005D0430E701E404F55D800D1209E560C16E
:10082900EA055D255D120246EA785AF630E701E4E9
:10083900255D04D55D0420050114120A02E4C0E017
:10084900120A8C785AE6601320E70714F612068C10
:10085900802204F6D0E014C0E07F0012068CE55D2A
:100869006007120683155D800B300503120683D0DD
:10087900E00206DDD0E00480C51209E560A0E55D6F
:1008890004120246785AEAF6E55D20050260010481
:050899002404120A0214
:10089E0074FF04C0E0120A8C12068CE55D2005027E
:1008AE006003120683D0E0B55DE87F4512069678A8
:1008BE005AE67F2B30E7047F2DF404C0E01206A425
:1008CE00D0E075F00A84C0F012068DD0E012068DCD
:1008DE000206DD791080027908C206C2088008D2AD
:1008EE00D5790A8004790AC2D5E55D047002F55DFA
:1008FE00E4FAFDFEFF120669FC7B082001131206C6
:10090E0069FD7B1030000A120669FE120669FF7B34
:10091E0020EC3382D592D55013C3E43000069FFFEE
:10092E00E49EFEE42001039DFDE49CFCE4CBF8C2B2
:10093E0001EC700CCFCECDCCE824F8F870F3801714
:10094E00C3EF33FFEE33FEED33FDEC33FCEB33FB45
:10095E00994002FB0FD8E9EB300105F8D0E0C4480E
:10096E00B201C0E00AEC4D4E4F78207B0070C2EA17
:10097E00B55D0040BCC0E0120A04D0F0D0E020010A
:10098E0004C4C0E0C4B201C0F012068DD0F0D5F0A0
:10099E00EB0206DD120643077A5308E158074B4C6B
:1009AE0007474208E54F08ED4408ED490760430844
:1009BE00F35508244608824507EE470AB950074FFB
:1009CE002D07532E07762B0757230774200AA22ACA
:1009DE00070F480000076EE55DB4FF03755D061254
:1009EE000669FC120669FD120669FE120669FF7899
:1009FE0053020275790AA2D5200314300509B910E5
:100A0E00020404B9080104A2D520060250010420F4
:100A1E0002689202B55C005034C0E07F20300319AA
:100A2E007F30A20272067205500F120A5BC202C21A
:100A3E0006C205C2087F30800F300503E9C0E01200
:100A4E0006A4300503D0E0F9D0E0B55CCC30051734
:100A5E007F30B9100C1206A47F583004077F7880BF
:100A6E0003B908031206A43002057F2D0206A47FE7
:100A7E00202008F87F2B2006F322920280CF7F00E1
:100A8E00B4070050052453F8E6FF22286E756C6CEF
:100A9E002900D2011206693001F8C201785C30D506
:100AAE000108F602070F2D50434958120669240318
:100ABE00B405004001E4900AB493120695743A12FC
:0A0ACE000695D203755C040208E1EE
:1001FC00E9D2E7C933E833F892D5EDD2E7CD33EC49
:07020C0033FC5002B2D522C1
:10021300EC30E7100FBF000C0EBE00080DBD00044C
:100223000BEB6014A2D5EB13FCED92E7FD2274FFF8
:10023300FCFDFEFF22E480F8A2D574FF13FC7D8051
:03024300E480EF65
:10024600F920E72824F950037907E4F42402FB187F
:10025600DBFDE624FB5014E9600DE4F618E604F62F
:0F026600B40A08E4F6D9F57401F60A22C2D522CB
:10027500ED33EC3392D5FA602AB4FF33EDC2E77B58
:10028500FF60067A02799AE4227A0279A320D504DE
:100295007A02799E224E614E002B494E46002D4929
:1002A5004E4600E47A08F608DAFC7B00740722E87B
:1002B500C0E0ECC0E0EDC0E0EEC0E0EFC0E0EA7504
:1002C500F010A4CAABF075F04DA42BFBE435F0FC9F
:1002D500EA2410FAEB34C5FBEC34D9FCEDC2E7FF98
:1002E50075F056A4F42411C5F0F434C58FF0A42A92
:1002F500E5F03BE43CF620E7141204AED0E0FFD075
:10030500E0FED0E0FDD0E0FC1201218014F40412DF
:1003150004AED0E0FFD0E0FED0E0FDD0E0FC12035B
:1003250078D0E0F8E6FAEDD2E7CD33EC332482FB62
:10033500E4C3CF33CFCE33CECD33CD33DBF37B0721
:1003450075F00A846004F6081B0AE5F0F6088FF0DC
:10035500740AA4FFACF08EF0740AA42CFEACF05025
:10036500010C8DF0740AA42CFDE435F0F608DBDEF3
:03037500740722E8
:10037800EC4D6011E8497017ED33EC3304600DE47F
:10038800FCFFFEFD22E933E8330470F80202311263
:1003980001FC58046009E4CC248150062850090265
:1003A800023B284003020238C0E0EB4A7044B9809F
:1003B80006D0E0FB020227EF4E701CBD8008EBFF61
:1003C800EAFEE9FD80EBE98DF0A4FEE5F0020461A8
:1003D800E9CDF9EAFEEBFFEF89F0A4FCE5F0CE8960
:1003E800F0A42EFFE435F0CD89F0A42DFEE435F01D
:1003F8008067EF4E7005BD80D780C3EF8BF0A4AC4B
:10040800F0EE8BF0A42CFCE435F0F8EF8AF0A42C85
:10041800E5F038FCE433CB8DF0A42CFCE5F03BF898
:10042800EE8AF0A42CFCE5F038F8E433CF89F0A488
:100438002CFCE5F038CF3400CE89F0A42FFFE5F08E
:100448003EFEE433C98DF0A42EFEE5F039CD8AF0E6
:10045800A42FFFE5F03EFEE43DFD33D0E0FB50075E
:100468000BBB000F02023BEC2CFCEF33FFEE33FE1C
:06047800ED33FD0202134A
:10047E003F8000004120000042C80000447A000086
:10048E00461C400047C35000497424004B18968008
:10049E004CBEBC205A0E1BCA6753C21C749DC5AEFF
:1004AE00FB60065407601C23231204DCEB543860F7
:1004BE00091204C81204D7120378ECF8EDF9EEFA1B
:1004CE00EFCB22EB1204D780F1543803241C900496
:1004DE007EFE93FC0EEE93FD0EEE930ECE93FF2258
:100E4600021348E493A3F8E493A34003F68001F267
:100E560008DFF48029E493A3F85407240CC8C333AD
:100E6600C4540F4420C8834004F456800146F6DF7C
:100E7600E4800B0102040810204080901359E47EA0
:100E8600019360BCA3FF543F30E509541FFEE49371
:100E9600A360010ECF54C025E060A840B8E493A338
:100EA600FAE493A3F8E493A3C8C582C8CAC583CA63
:100EB600F0A3C8C582C8CAC583CADFE9DEE780BE1B
:011365000087
:1004EE00BB010689828A83E0225002E722BBFE020C
:0904FE00E32289828A83E493223F
:10050700BB010CE58229F582E5833AF583E02250A9
:1005170006E92582F8E622BBFE06E92582F8E222F3
:0D052700E58229F582E5833AF583E493220D
:10053400BB010689828A83F0225002F722BBFE01A6
:02054400F322A0
:1005460075F008758200EF2FFFEE33FECD33CDCC6C
:1005560033CCC58233C5829BED9AEC99E5829840EF
:100566000CF582EE9BFEED9AFDEC99FC0FD5F0D6CC
:10057600E4CEFBE4CDFAE4CCF9A88222B800C1B9F6
:100586000059BA002DEC8BF084CFCECDFCE5F0CB34
:10059600F97818EF2FFFEE33FEED33FDEC33FCEB6D
:1005A60033FB10D703994004EB99FB0FD8E5E4F928
:1005B600FA227818EF2FFFEE33FEED33FDEC33FC15
:1005C600C933C910D7059BE99A4007EC9BFCE99A09
:1005D600F90FD8E0E4C9FAE4CCFB2275F010EF2F4E
:1005E600FFEE33FEED33FDCC33CCC833C810D7074E
:1005F6009BEC9AE899400AED9BFDEC9AFCE899F889
:0E0606000FD5F0DAE4CDFBE4CCFAE4C8F9221B
:0E061400C3E49FFFE49EFEE49DFDE49CFC22F7
:10062200EB9FF5F0EA9E42F0E99D42F0E89C45F02E
:0106320022A5
:10063300FAE6FB0808E6F925F0F618E6CA3AF622C8
:10064300D083D082F8E4937012740193700DA3A346
:1006530093F8740193F5828883E47374029368605A
:06066300EFA3A3A380DF5A
:1011F700EFB40A07740D121202740A309811A899F5
:10120700B8130CC2983098FDA899C298B811F63057
:0712170099FDC299F599222F
:00000001FF
