:0900CE007E0012015C7F017E003E
:1000D700D3EF9400EE9400400F7D267C82DCFEDD9A
:0800E700FAEF1F70EB1E80E828
:0100EF0022EE
:10012C00E4FEEF30E704D2A58002C2A5EF25E0FF84
:08013C00C2A6D2A60EBE08EA1D
:010144002298
:1000F000EA24B0FFE433FE1201047F107E001201F7
:0401000004E4FFFE16
:0A010400C2A3C2A712012CD2A3224D
:0A015C00C2A3D2A712012CD2A322E5
:10000300D2A4E4FFFE0FBF00010EBE03F8BFE8F564
:10001300C2A4E4FEFF0FBF00010EBE03F8BFE8F564
:10002300D2A4E4FEFF0FBF00010EBE03F8BFE8F544
:100033007FE27E001201047FC87E001201047FA0CC
:100043007E001201047F2F7E001201047F267E00B2
:100053001201047F817E001201047F107E001201D1
:08006300047FAF7E00020104DE
:10010E00E4FD7F407E00120104ED1200F1E4FCE4F8
:0D011E00FFFE12015C0CBC60F60DBD06E595
:01012B0022B1
:10006B00E4FBFA7F407E00120104EB24B0FFE43A7C
:10007B001200F69000007FF01200CEA3E5826460C0
:10008B00458370F20BBB00010AEB64064A70D40285
:02009B00010E54
:10009D00E4FA7F407E001201041200F0E4FB7FFFC2
:1000AD001200CE0BBB60F70ABA06E7E4FA1200F0B5
:1000BD00E4FBE4FFFE1200D00BBB60F60ABA07EDBD
:0100CD002210
:0B01510012000312010E12009D80FB43
:03000000020145B5
:0C014500787FE4F6D8FD758107020151B7
:00000001FF
