:08000300FEFDFBF7EFDFBF7FFC
:0500E100C10001080050
:10009A00E4FF758901758C3C758AB0D28CD2A9D2DD
:1000AA00AF3000FDC200AE070FEE90000393F5A03B
:0A00BA00EFD3940740EBE4FF80E76A
:03000B000200C42C
:0400C400C0E0C0D008
:1000C800758C3C758AB00508E508D3940A40057517
:0400D8000800D2004A
:0500DC00D0D0D0E0329D
:0300000002000EED
:0C000E00787FE4F6D8FD758120020055D3
:10001A0002009AE493A3F8E493A34003F68001F262
:10002A0008DFF48029E493A3F85407240CC8C333E7
:10003A00C4540F4420C8834004F456800146F6DFB6
:10004A00E4800B01020408102040809000E1E47E65
:10005A00019360BCA3FF543F30E509541FFEE493AB
:10006A00A360010ECF54C025E060A840B8E493A372
:10007A00FAE493A3F8E493A3C8C582C8CAC583CA9D
:10008A00F0A3C8C582C8CAC583CADFE9DEE780BE55
:0100E6000019
:00000001FF
