:10000300C6D5D6D0BFC6BCBC00C6D5404454644593
:100013007E4444447E456454444000000000FF494C
:10002300494949494949FF00000000D6D00000F082
:1000330010101010FF10101010F000000000000F3F
:1000430004040404FF040404040F000000BFC624D6
:1000530024A4FEA3220022CC0000FF00000000081D
:100063000601FF00010404040404FF02020200BCB1
:10007300BC101010FF109008888888FF88888808B3
:10008300000444827F01808040432C1028468180F5
:1000930000D3D004040484E43C2724242424E4046B
:1000A30004040004020100FF0909090949897F00CA
:1000B300000000CFDE00FE225A8600FE929292924A
:1000C30092FE00000000FF04080700FF4020030C1D
:1000D3001422414000B9AB0080402018068000077D
:1000E30018204080000000010020702826212020D5
:1000F30024386000010100CBBE001012929292924C
:100103009292121202FE0000000000003F10101035
:09011300103F0040807F00000055
:10030300D3EF9400EE9400400F7D267C82DCFEDD6B
:08031300FAEF1F70EB1E80E8F9
:01031B0022BF
:10031C00E4FEEF30E704D2A58002C2A5EF25E0FF92
:08032C00C2A6D2A60EBE08EA2B
:0103340022A6
:08033500E50B2410FFE433FE88
:0A033D00C2A3C2A712031CD2A32220
:0A035300C2A3D2A712031CD2A322FA
:1001F000D2A4E4FFFE0FBF00010EBE03F8BFE8F576
:10020000C2A4E4FEFF0FBF00010EBE03F8BFE8F575
:10021000D2A4E4FEFF0FBF00010EBE03F8BFE8F555
:100220007FE27E0012033D7FC87E0012033D7FA067
:100230007E0012033D7F2F7E0012033D7F267E004D
:1002400012033D7F817E0012033D7F107E0012036A
:080250003D7FAF7E0002033D7B
:1002D600E4FD7F407E0012033DED24B01203397F1A
:1002E600107E0012033DE4FFFE12033DE4FCE4FF32
:0C02F600FE1203530CBC60F60DBD08D6D0
:0103020022D8
:04011C008F098D0AB0
:10012000E50AD3940740037F0022E509D394604099
:10013000037F002274B0250AF50AFF7E0012033DFA
:1001400012025870030201EDAF0A7E0012033DE572
:1001500009C4540FF50BE509540FF50C120335AF24
:100160000C7E0012033DE4FD120258FF75F022EDF3
:10017000A4240CF582E5F03400F583E4936F705D00
:10018000900001120271FF75F022EDA4240DF5829A
:10019000E5F03400F583E4936F7042FCEC6410707A
:1001A00011E50A2401120339120335AF0C7E001247
:1001B000033D75F022EDA4240EF582E5F03400F540
:1001C00083E5822CF582E43583F583E493FF7E009A
:1001D0001203530CBC20C574102509F5090DED64FC
:0F01E0001E7085740229F9E43AFA0201407F018A
:0101EF0022ED
:10029E001201F01202D67BFF7A007903E4FD7F0F84
:1002AE0012011CE4F5087BFF7A007903AD087F0F7D
:1002BE0012011C7F647E001203031202D60508E5AC
:0802CE0008C3940540E080DB49
:03000000020347B1
:0C034700787FE4F6D8FD75810C02029E60
:10025800BB010689828A83E0225002E722BBFE02A4
:09026800E32289828A83E49322D7
:10027100BB010CE58229F582E5833AF583E0225042
:1002810006E92582F8E622BBFE06E92582F8E2228C
:0D029100E58229F582E5833AF583E49322A6
:00000001FF
